{
  "contractName": "ChainPass",
  "abi": [
    {
      "inputs": [],
      "payable": false,
      "stateMutability": "nonpayable",
      "type": "constructor"
    },
    {
      "anonymous": false,
      "inputs": [
        {
          "indexed": true,
          "internalType": "address",
          "name": "_user",
          "type": "address"
        }
      ],
      "name": "Registered",
      "type": "event"
    },
    {
      "constant": false,
      "inputs": [
        {
          "internalType": "address",
          "name": "_user",
          "type": "address"
        }
      ],
      "name": "register",
      "outputs": [],
      "payable": false,
      "stateMutability": "nonpayable",
      "type": "function"
    },
    {
      "constant": false,
      "inputs": [
        {
          "internalType": "string",
          "name": "_name",
          "type": "string"
        }
      ],
      "name": "setName",
      "outputs": [],
      "payable": false,
      "stateMutability": "nonpayable",
      "type": "function"
    },
    {
      "constant": false,
      "inputs": [
        {
          "internalType": "string",
          "name": "_url",
          "type": "string"
        },
        {
          "internalType": "string",
          "name": "_username",
          "type": "string"
        },
        {
          "internalType": "string",
          "name": "_password",
          "type": "string"
        }
      ],
      "name": "addPassword",
      "outputs": [],
      "payable": false,
      "stateMutability": "nonpayable",
      "type": "function"
    },
    {
      "constant": false,
      "inputs": [
        {
          "internalType": "uint256",
          "name": "_index",
          "type": "uint256"
        }
      ],
      "name": "deletePassword",
      "outputs": [],
      "payable": false,
      "stateMutability": "nonpayable",
      "type": "function"
    },
    {
      "constant": true,
      "inputs": [],
      "name": "checkIfRegistered",
      "outputs": [
        {
          "internalType": "bool",
          "name": "",
          "type": "bool"
        }
      ],
      "payable": false,
      "stateMutability": "view",
      "type": "function"
    },
    {
      "constant": true,
      "inputs": [],
      "name": "listPasswords",
      "outputs": [
        {
          "internalType": "string[3][]",
          "name": "",
          "type": "string[3][]"
        }
      ],
      "payable": false,
      "stateMutability": "view",
      "type": "function"
    },
    {
      "constant": true,
      "inputs": [],
      "name": "getName",
      "outputs": [
        {
          "internalType": "string",
          "name": "",
          "type": "string"
        }
      ],
      "payable": false,
      "stateMutability": "view",
      "type": "function"
    }
  ],
  "bytecode": "0x608060405234801561001057600080fd5b50336000806101000a81548173ffffffffffffffffffffffffffffffffffffffff021916908373ffffffffffffffffffffffffffffffffffffffff160217905550610fc8806100606000396000f3fe608060405234801561001057600080fd5b506004361061007d5760003560e01c80639db933771161005b5780639db93377146100d8578063be66179a146100f6578063c3b3863c14610114578063c47f0027146101305761007d565b806317d7de7c146100825780634420e486146100a05780636c5376c9146100bc575b600080fd5b61008a61014c565b6040516100979190610da3565b60405180910390f35b6100ba60048036036100b59190810190610aa9565b61028b565b005b6100d660048036036100d19190810190610b13565b610381565b005b6100e061047b565b6040516100ed9190610d88565b60405180910390f35b6100fe6104cf565b60405161010b9190610d66565b60405180910390f35b61012e60048036036101299190810190610baa565b61068e565b005b61014a60048036036101459190810190610ad2565b610755565b005b606060011515600160003373ffffffffffffffffffffffffffffffffffffffff1673ffffffffffffffffffffffffffffffffffffffff16815260200190815260200160002060009054906101000a900460ff161515146101ab57600080fd5b600260003373ffffffffffffffffffffffffffffffffffffffff1673ffffffffffffffffffffffffffffffffffffffff1681526020019081526020016000206000018054600181600116156101000203166002900480601f0160208091040260200160405190810160405280929190818152602001828054600181600116156101000203166002900480156102815780601f1061025657610100808354040283529160200191610281565b820191906000526020600020905b81548152906001019060200180831161026457829003601f168201915b5050505050905090565b6000809054906101000a900473ffffffffffffffffffffffffffffffffffffffff1673ffffffffffffffffffffffffffffffffffffffff163373ffffffffffffffffffffffffffffffffffffffff16146102e457600080fd5b60018060008373ffffffffffffffffffffffffffffffffffffffff1673ffffffffffffffffffffffffffffffffffffffff16815260200190815260200160002060006101000a81548160ff0219169083151502179055508073ffffffffffffffffffffffffffffffffffffffff167f2d3734a8e47ac8316e500ac231c90a6e1848ca2285f40d07eaa52005e4b3a0e960405160405180910390a250565b60011515600160003373ffffffffffffffffffffffffffffffffffffffff1673ffffffffffffffffffffffffffffffffffffffff16815260200190815260200160002060009054906101000a900460ff161515146103de57600080fd5b600260003373ffffffffffffffffffffffffffffffffffffffff1673ffffffffffffffffffffffffffffffffffffffff1681526020019081526020016000206001016040518060600160405280858152602001848152602001838152509080600181540180825580915050906001820390600052602060002090600302016000909192909190915090600361047492919061080c565b5050505050565b6000600160003373ffffffffffffffffffffffffffffffffffffffff1673ffffffffffffffffffffffffffffffffffffffff16815260200190815260200160002060009054906101000a900460ff16905090565b606060011515600160003373ffffffffffffffffffffffffffffffffffffffff1673ffffffffffffffffffffffffffffffffffffffff16815260200190815260200160002060009054906101000a900460ff1615151461052e57600080fd5b600260003373ffffffffffffffffffffffffffffffffffffffff1673ffffffffffffffffffffffffffffffffffffffff168152602001908152602001600020600101805480602002602001604051908101604052809291908181526020016000905b828210156106855783829060005260206000209060030201600380602002604051908101604052809291906000905b82821015610672578382018054600181600116156101000203166002900480601f01602080910402602001604051908101604052809291908181526020018280546001816001161561010002031660029004801561065e5780601f106106335761010080835404028352916020019161065e565b820191906000526020600020905b81548152906001019060200180831161064157829003601f168201915b5050505050815260200190600101906105bf565b5050505081526020019060010190610590565b50505050905090565b60011515600160003373ffffffffffffffffffffffffffffffffffffffff1673ffffffffffffffffffffffffffffffffffffffff16815260200190815260200160002060009054906101000a900460ff161515146106eb57600080fd5b600260003373ffffffffffffffffffffffffffffffffffffffff1673ffffffffffffffffffffffffffffffffffffffff168152602001908152602001600020600101818154811061073857fe5b90600052602060002090600302016000610752919061085f565b50565b60011515600160003373ffffffffffffffffffffffffffffffffffffffff1673ffffffffffffffffffffffffffffffffffffffff16815260200190815260200160002060009054906101000a900460ff161515146107b257600080fd5b80600260003373ffffffffffffffffffffffffffffffffffffffff1673ffffffffffffffffffffffffffffffffffffffff1681526020019081526020016000206000019080519060200190610808929190610892565b5050565b826003810192821561084e579160200282015b8281111561084d57825182908051906020019061083d929190610912565b509160200191906001019061081f565b5b50905061085b9190610992565b5090565b506000818161086e91906109be565b506001016000818161088091906109be565b50600101600061089091906109be565b565b828054600181600116156101000203166002900490600052602060002090601f016020900481019282601f106108d357805160ff1916838001178555610901565b82800160010185558215610901579182015b828111156109005782518255916020019190600101906108e5565b5b50905061090e9190610a06565b5090565b828054600181600116156101000203166002900490600052602060002090601f016020900481019282601f1061095357805160ff1916838001178555610981565b82800160010185558215610981579182015b82811115610980578251825591602001919060010190610965565b5b50905061098e9190610a06565b5090565b6109bb91905b808211156109b757600081816109ae91906109be565b50600101610998565b5090565b90565b50805460018160011615610100020316600290046000825580601f106109e45750610a03565b601f016020900490600052602060002090810190610a029190610a06565b5b50565b610a2891905b80821115610a24576000816000905550600101610a0c565b5090565b90565b600081359050610a3a81610f57565b92915050565b600082601f830112610a5157600080fd5b8135610a64610a5f82610df2565b610dc5565b91508082526020830160208301858383011115610a8057600080fd5b610a8b838284610f04565b50505092915050565b600081359050610aa381610f6e565b92915050565b600060208284031215610abb57600080fd5b6000610ac984828501610a2b565b91505092915050565b600060208284031215610ae457600080fd5b600082013567ffffffffffffffff811115610afe57600080fd5b610b0a84828501610a40565b91505092915050565b600080600060608486031215610b2857600080fd5b600084013567ffffffffffffffff811115610b4257600080fd5b610b4e86828701610a40565b935050602084013567ffffffffffffffff811115610b6b57600080fd5b610b7786828701610a40565b925050604084013567ffffffffffffffff811115610b9457600080fd5b610ba086828701610a40565b9150509250925092565b600060208284031215610bbc57600080fd5b6000610bca84828501610a94565b91505092915050565b6000610bdf8383610c70565b905092915050565b6000610bf38383610d2d565b905092915050565b6000610c0682610e38565b610c108185610e7e565b935083602082028501610c2285610e1e565b8060005b85811015610c5e5784840389528151610c3f8582610bd3565b9450610c4a83610e64565b925060208a01995050600181019050610c26565b50829750879550505050505092915050565b6000610c7b82610e43565b610c858185610e8f565b935083602082028501610c9785610e2e565b8060005b85811015610cd35784840389528151610cb48582610be7565b9450610cbf83610e71565b925060208a01995050600181019050610c9b565b50829750879550505050505092915050565b610cee81610ece565b82525050565b6000610cff82610e59565b610d098185610eab565b9350610d19818560208601610f13565b610d2281610f46565b840191505092915050565b6000610d3882610e4e565b610d428185610e9a565b9350610d52818560208601610f13565b610d5b81610f46565b840191505092915050565b60006020820190508181036000830152610d808184610bfb565b905092915050565b6000602082019050610d9d6000830184610ce5565b92915050565b60006020820190508181036000830152610dbd8184610cf4565b905092915050565b6000604051905081810181811067ffffffffffffffff82111715610de857600080fd5b8060405250919050565b600067ffffffffffffffff821115610e0957600080fd5b601f19601f8301169050602081019050919050565b6000819050602082019050919050565b6000819050919050565b600081519050919050565b600060039050919050565b600081519050919050565b600081519050919050565b6000602082019050919050565b6000602082019050919050565b600082825260208201905092915050565b600081905092915050565b600082825260208201905092915050565b600082825260208201905092915050565b6000610ec782610eda565b9050919050565b60008115159050919050565b600073ffffffffffffffffffffffffffffffffffffffff82169050919050565b6000819050919050565b82818337600083830152505050565b60005b83811015610f31578082015181840152602081019050610f16565b83811115610f40576000848401525b50505050565b6000601f19601f8301169050919050565b610f6081610ebc565b8114610f6b57600080fd5b50565b610f7781610efa565b8114610f8257600080fd5b5056fea365627a7a7231582019f9df5f4b0aed1f6b305848628fec4dba63392de458cda0f86ae3ff57cedac76c6578706572696d656e74616cf564736f6c63430005100040",
  "source": "pragma solidity >=0.5.0;\r\npragma experimental ABIEncoderV2;\r\n\r\n\r\ncontract ChainPass{\r\n    address owner; //keeps track of the deployer of the smart contract\r\n    \r\n    modifier userFunc{//modifier to allow access only to registered users\r\n       require(hasRegistered[msg.sender] == true);\r\n        _;\r\n    }\r\n    \r\n    modifier ownerFunc{//modifier to allow access only to contract deployer\r\n        require(msg.sender == owner);\r\n        _;\r\n    }\r\n    \r\n    struct Account{//struct holding the accounts name and passwords\r\n        string _accountname;\r\n        string[3][] _passwords;\r\n    }\r\n    \r\n    mapping(address => bool) private hasRegistered;//keeps track of who has registered\r\n    mapping(address => Account) private _accounts;//keeps track of everyones account\r\n\r\n\tevent Registered(address indexed _user);//emits upon a user registering\r\n\t\r\n\tconstructor() public{\r\n\t    owner = msg.sender;\r\n\t}\r\n    \r\n    function register(address _user) public ownerFunc{//registeres a user, ownerfunc for now\r\n        hasRegistered[_user] = true;\r\n    \t\r\n    \temit Registered(_user);\r\n    }\r\n    \r\n    function setName(string memory _name) public userFunc{//sets the desired name of the account\r\n        _accounts[msg.sender]._accountname = _name;\r\n    }\r\n    \r\n    function addPassword(string memory _url, string memory _username, string memory _password) public userFunc{//adds a password to the array\r\n        _accounts[msg.sender]._passwords.push([_url, _username, _password]);\r\n    }\r\n\r\n    function deletePassword(uint _index) public userFunc{//deletes a password at a given index\r\n        delete _accounts[msg.sender]._passwords[_index];\r\n    }\r\n    \r\n    function checkIfRegistered() public view returns(bool){\r\n        return hasRegistered[msg.sender];\r\n    }\r\n    \r\n    function listPasswords() public userFunc view returns(string[3][] memory){\r\n        return _accounts[msg.sender]._passwords;\r\n    }\r\n    \r\n    function getName() public userFunc view returns(string memory){\r\n        return _accounts[msg.sender]._accountname;\r\n    }\r\n    \r\n    \r\n}",
  "sourcePath": "C:/Users/sabum/Documents/Projects/ChainPass/blockchain/contracts/ChainPass.sol",
  "compiler": {
    "name": "solc",
    "version": "0.5.16+commit.9c3226ce.Emscripten.clang"
  },
  "schemaVersion": "3.3.4",
  "updatedAt": "2021-04-07T22:13:24.946Z",
  "networkType": "ethereum",
  "devdoc": {
    "methods": {}
  },
  "userdoc": {
    "methods": {}
  }
}