{
  "contractName": "ChainPass",
  "abi": [
    {
      "constant": false,
      "inputs": [
        {
          "internalType": "string",
          "name": "_name",
          "type": "string"
        }
      ],
      "name": "setName",
      "outputs": [],
      "payable": false,
      "stateMutability": "nonpayable",
      "type": "function"
    },
    {
      "constant": false,
      "inputs": [
        {
          "internalType": "string",
          "name": "_url",
          "type": "string"
        },
        {
          "internalType": "string",
          "name": "_username",
          "type": "string"
        },
        {
          "internalType": "string",
          "name": "_password",
          "type": "string"
        }
      ],
      "name": "addPassword",
      "outputs": [],
      "payable": false,
      "stateMutability": "nonpayable",
      "type": "function"
    },
    {
      "constant": false,
      "inputs": [
        {
          "internalType": "uint256",
          "name": "_index",
          "type": "uint256"
        }
      ],
      "name": "deletePassword",
      "outputs": [],
      "payable": false,
      "stateMutability": "nonpayable",
      "type": "function"
    },
    {
      "constant": true,
      "inputs": [],
      "name": "listPasswords",
      "outputs": [
        {
          "internalType": "string[3][]",
          "name": "",
          "type": "string[3][]"
        }
      ],
      "payable": false,
      "stateMutability": "view",
      "type": "function"
    },
    {
      "constant": true,
      "inputs": [],
      "name": "getName",
      "outputs": [
        {
          "internalType": "string",
          "name": "",
          "type": "string"
        }
      ],
      "payable": false,
      "stateMutability": "view",
      "type": "function"
    }
  ],
  "bytecode": "0x608060405234801561001057600080fd5b50610b8b806100206000396000f3fe608060405234801561001057600080fd5b50600436106100575760003560e01c806317d7de7c1461005c5780636c5376c91461007a578063be66179a14610096578063c3b3863c146100b4578063c47f0027146100d0575b600080fd5b6100646100ec565b60405161007191906109bb565b60405180910390f35b610094600480360361008f9190810190610755565b6101cd565b005b61009e610269565b6040516100ab9190610999565b60405180910390f35b6100ce60048036036100c991908101906107ec565b6103ca565b005b6100ea60048036036100e59190810190610714565b610433565b005b60606000803373ffffffffffffffffffffffffffffffffffffffff1673ffffffffffffffffffffffffffffffffffffffff1681526020019081526020016000206000018054600181600116156101000203166002900480601f0160208091040260200160405190810160405280929190818152602001828054600181600116156101000203166002900480156101c35780601f10610198576101008083540402835291602001916101c3565b820191906000526020600020905b8154815290600101906020018083116101a657829003601f168201915b5050505050905090565b6000803373ffffffffffffffffffffffffffffffffffffffff1673ffffffffffffffffffffffffffffffffffffffff1681526020019081526020016000206001016040518060600160405280858152602001848152602001838152509080600181540180825580915050906001820390600052602060002090600302016000909192909190915090600361026292919061048c565b5050505050565b60606000803373ffffffffffffffffffffffffffffffffffffffff1673ffffffffffffffffffffffffffffffffffffffff168152602001908152602001600020600101805480602002602001604051908101604052809291908181526020016000905b828210156103c15783829060005260206000209060030201600380602002604051908101604052809291906000905b828210156103ae578382018054600181600116156101000203166002900480601f01602080910402602001604051908101604052809291908181526020018280546001816001161561010002031660029004801561039a5780601f1061036f5761010080835404028352916020019161039a565b820191906000526020600020905b81548152906001019060200180831161037d57829003601f168201915b5050505050815260200190600101906102fb565b50505050815260200190600101906102cc565b50505050905090565b6000803373ffffffffffffffffffffffffffffffffffffffff1673ffffffffffffffffffffffffffffffffffffffff168152602001908152602001600020600101818154811061041657fe5b9060005260206000209060030201600061043091906104df565b50565b806000803373ffffffffffffffffffffffffffffffffffffffff1673ffffffffffffffffffffffffffffffffffffffff1681526020019081526020016000206000019080519060200190610488929190610512565b5050565b82600381019282156104ce579160200282015b828111156104cd5782518290805190602001906104bd929190610592565b509160200191906001019061049f565b5b5090506104db9190610612565b5090565b50600081816104ee919061063e565b5060010160008181610500919061063e565b506001016000610510919061063e565b565b828054600181600116156101000203166002900490600052602060002090601f016020900481019282601f1061055357805160ff1916838001178555610581565b82800160010185558215610581579182015b82811115610580578251825591602001919060010190610565565b5b50905061058e9190610686565b5090565b828054600181600116156101000203166002900490600052602060002090601f016020900481019282601f106105d357805160ff1916838001178555610601565b82800160010185558215610601579182015b828111156106005782518255916020019190600101906105e5565b5b50905061060e9190610686565b5090565b61063b91905b80821115610637576000818161062e919061063e565b50600101610618565b5090565b90565b50805460018160011615610100020316600290046000825580601f106106645750610683565b601f0160209004906000526020600020908101906106829190610686565b5b50565b6106a891905b808211156106a457600081600090555060010161068c565b5090565b90565b600082601f8301126106bc57600080fd5b81356106cf6106ca82610a0a565b6109dd565b915080825260208301602083018583830111156106eb57600080fd5b6106f6838284610ade565b50505092915050565b60008135905061070e81610b31565b92915050565b60006020828403121561072657600080fd5b600082013567ffffffffffffffff81111561074057600080fd5b61074c848285016106ab565b91505092915050565b60008060006060848603121561076a57600080fd5b600084013567ffffffffffffffff81111561078457600080fd5b610790868287016106ab565b935050602084013567ffffffffffffffff8111156107ad57600080fd5b6107b9868287016106ab565b925050604084013567ffffffffffffffff8111156107d657600080fd5b6107e2868287016106ab565b9150509250925092565b6000602082840312156107fe57600080fd5b600061080c848285016106ff565b91505092915050565b600061082183836108b2565b905092915050565b60006108358383610960565b905092915050565b600061084882610a50565b6108528185610a96565b93508360208202850161086485610a36565b8060005b858110156108a057848403895281516108818582610815565b945061088c83610a7c565b925060208a01995050600181019050610868565b50829750879550505050505092915050565b60006108bd82610a5b565b6108c78185610aa7565b9350836020820285016108d985610a46565b8060005b8581101561091557848403895281516108f68582610829565b945061090183610a89565b925060208a019950506001810190506108dd565b50829750879550505050505092915050565b600061093282610a71565b61093c8185610ac3565b935061094c818560208601610aed565b61095581610b20565b840191505092915050565b600061096b82610a66565b6109758185610ab2565b9350610985818560208601610aed565b61098e81610b20565b840191505092915050565b600060208201905081810360008301526109b3818461083d565b905092915050565b600060208201905081810360008301526109d58184610927565b905092915050565b6000604051905081810181811067ffffffffffffffff82111715610a0057600080fd5b8060405250919050565b600067ffffffffffffffff821115610a2157600080fd5b601f19601f8301169050602081019050919050565b6000819050602082019050919050565b6000819050919050565b600081519050919050565b600060039050919050565b600081519050919050565b600081519050919050565b6000602082019050919050565b6000602082019050919050565b600082825260208201905092915050565b600081905092915050565b600082825260208201905092915050565b600082825260208201905092915050565b6000819050919050565b82818337600083830152505050565b60005b83811015610b0b578082015181840152602081019050610af0565b83811115610b1a576000848401525b50505050565b6000601f19601f8301169050919050565b610b3a81610ad4565b8114610b4557600080fd5b5056fea365627a7a723158205b796ce09766a821dd429b9a6f122808c8a3b08e60a4f9ac685ef49417c22e5f6c6578706572696d656e74616cf564736f6c63430005100040",
  "source": "pragma solidity >=0.5.0;\npragma experimental ABIEncoderV2;\n\n\ncontract ChainPass{\n    \n    struct Account{//struct holding the accounts name and passwords\n        string _accountname;\n        string[3][] _passwords;\n    }\n    \n    mapping(address => Account) private _accounts;//keeps track of everyones account\n    \n    function setName(string memory _name) public {//sets the desired name of the account\n        _accounts[msg.sender]._accountname = _name;\n    }\n    \n    function addPassword(string memory _url, string memory _username, string memory _password) public {//adds a password to the array\n        _accounts[msg.sender]._passwords.push([_url, _username, _password]);\n    }\n\n    function deletePassword(uint _index) public {//deletes a password at a given index\n        delete _accounts[msg.sender]._passwords[_index];\n    }\n    \n    function listPasswords() public  view returns(string[3][] memory){\n        return _accounts[msg.sender]._passwords;\n    }\n    \n    function getName() public  view returns(string memory){\n        return _accounts[msg.sender]._accountname;\n    }\n    \n    \n}",
  "sourcePath": "E:/Work/Projects/DAPPS/ChainPass/blockchain/contracts/ChainPass.sol",
  "compiler": {
    "name": "solc",
    "version": "0.5.16+commit.9c3226ce.Emscripten.clang"
  },
  "schemaVersion": "3.3.4",
  "updatedAt": "2021-04-09T17:43:48.142Z",
  "networkType": "ethereum",
  "devdoc": {
    "methods": {}
  },
  "userdoc": {
    "methods": {}
  }
}